S01500004269706F6C61724472697665722E73726563DA
S11300000C942A000C9447000C9447000C9447006D
S11300100C9447000C9447000C9447000C94060180
S11300200C9447000C9447000C9447000C94470030
S11300300C9447000C943A020C9447000C9447002B
S11300400C9447000C9447000C9447000C94470010
S11300500C94470011241FBECFE5D8E0DEBFCDBF0E
S113006010E0A0E6B0E0E8E5F5E002C005900D92EE
S1130070A03AB107D9F720E0A0EAB0E001C01D9290
S1130080AE3AB207E1F70E9463020C94AA020C9400
S1130090000087B38F6087BB88B3807F88BB0895D7
S11300A08091A300823089F018F4813031F025C0AA
S11300B0833099F08430C9F020C088B3847F88BB32
S11300C0C29A82E08093A300089588B3827F88BB9C
S11300D0C19A83E08093A300089588B3887F88BB86
S11300E0C39A84E08093A300089588B3817F88BB7A
S11300F0C09A81E08093A300089581E08093A300D7
S113010008958091A300823089F018F4813031F091
S113011025C0833099F08430C9F020C088B3887F2B
S113012088BBC39A84E08093A300089588B3817F39
S113013088BBC09A81E08093A300089588B3847F2C
S113014088BBC29A82E08093A300089588B3827F1B
S113015088BBC19A83E08093A300089581E08093D3
S1130160A30008958091A5009091A6002091A90074
S11301703091AA00BC01621B730BAB0122F444272B
S11301805527461B570B4A30510564F182179307D4
S1130190D8F40E9450008091A5009091A600429648
S11301A09093A6008093A5002091A9003091AA0005
S11301B0BC01621B730BAB0122F444275527461B79
S11301C0570B4A30510574F02817390758F40E9428
S11301D081008091A5009091A60042979093A6007B
S11301E08093A5008FE39FE10197F1F700C0000021
S11301F008958EB58B608EBD1DBC1CBC8FE493EC42
S11302009BBD8ABD89B7806189BF08951F920F92F3
S11302100FB60F9211242F933F938F939F93809146
S1130220A5009091A6002091A9003091AA00821BFC
S1130230930B9C0122F422273327281B390B2A30E5
S113024031051CF488B3807F88BB9F918F913F91C7
S11302502F910F900FBE0F901F90189525B32F70FC
S1130260382F307F232B25BB25B361702E7F262B9F
S113027025BBA99AEFEDFEE23197F1F700C000002B
S113028025B32C7F25BB25B32F7082959295907F43
S11302909827807F9827822B85BB85B38E7F682B18
S11302A065BBA99A8FED9EE20197F1F700C00000AB
S11302B085B38C7F85BB08958FEF84BB60E070E0CD
S11302C083E090E00E942E018FEF9CE70197F1F705
S11302D000C0000060E070E083E090E00E942E0126
S11302E08FEF9CE70197F1F700C0000060E070E039
S11302F083E090E00E942E018FEF9CE70197F1F7D5
S113030000C0000060E070E082E090E00E942E01F6
S11303108FEF9CE70197F1F700C0000060E070E008
S11303208CE090E00E942E018FEF9CE70197F1F79B
S113033000C0000060E070E081E090E00E942E01C7
S11303408FEF9CE70197F1F700C0000060E070E0D8
S113035080E890E00E942E018FEF9CE70197F1F76F
S113036000C0000060E070E081E090E00E942E0197
S11303700895EF92FF920F931F93CF93DF938C0115
S11303807C01C0E0D0E009C0F70181917F0161E008
S113039070E090E00E942E012196F8010190002067
S11303A0E9F73197E01BF10BCE17DF0768F3DF9114
S11303B0CF911F910F91FF90EF90089560E070E04E
S11303C081E090E00E942E0160E070E080E890E01F
S11303D00E942E0180E790E00E94B90160E070E085
S11303E080EC90E00E942E018FE790E00E94B9011A
S11303F0089588E18AB986E880BD10BC87E689B98A
S1130400579A08952091A1003091A200213031051E
S113041099F028F022303105D9F08CB9089521E003
S113042030E03093A2002093A1008093A0001092AA
S1130430AC001092AB00089522E030E03093A200AB
S11304402093A10090E09093AC008093AB000895BA
S11304501092A2001092A10020E030E03091AB0095
S1130460282B3093AC002093AB003093AA00209348
S1130470A90008951F920F920FB60F9211242F9383
S11304803F934F935F936F937F938F939F93AF9318
S1130490BF93EF93FF938CB18093AD008091AD0037
S11304A00E940202FF91EF91BF91AF919F918F91B2
S11304B07F916F915F914F913F912F910F900FBE5C
S11304C00F901F9018951092A6001092A5001092FC
S11304D0A8001092A7001092A3001092AA001092F4
S11304E0A9000E94F9010E945C010E94F9000E9487
S11304F049002FEF80E792E0215080409040E1F7DF
S113050000C000000E94DE012FEF83ED90E3215034
S113051080409040E1F700C0000060E070E081E0BE
S113052090E00E942E0160E070E080E890E00E947C
S11305302E018EE890E00E94B9012FEF8DE399E43B
S1130540215080409040E1F700C0000078940E9460
S10B0550B200FDCFF894FFCFC7
S1130558496E697469616C697A696E672E2E2E001A
S11305684249504F4C41522044524956455200206A
S1130578202053434F5250494F4E49505800414E42
S1130588474C4520544152474554204449460000AD
S9030000FC
