S01500004269706F6C61724472697665722E73726563DA
S11300000C942A000C9447000C9447000C9447006D
S11300100C9447000C9447000C9447000C94AA00DD
S11300200C9447000C9447000C9447000C94470030
S11300300C9447000C9447000C9447000C94470020
S11300400C9447000C9447000C9447000C94470010
S11300500C94470011241FBECFE5D8E0DEBFCDBF0E
S113006010E0A0E6B0E0ECE2F3E002C005900D92EF
S1130070AE38B107D9F720E0AEE8B0E001C01D9278
S1130080AE38B207E1F70E947F010C9494010C94FE
S1130090000087B38F6087BB88B3807F88BB0895D7
S11300A088B3817F88BBC09A8FE39CE90197F1F7FD
S11300B000C0000088B3807F88BB8FE39CE9019770
S11300C0F1F700C0000088B3847F88BBC29A8FE335
S11300D09CE90197F1F700C0000088B3807F88BBDA
S11300E08FE39CE90197F1F700C0000088B3827F99
S11300F088BBC19A8FE39CE90197F1F700C0000027
S113010088B3807F88BB8FE39CE90197F1F700C037
S1130110000088B3887F88BBC39A8FE39CE901976A
S1130120F1F700C0000088B3807F88BB8FE39CE9AF
S11301300197F1F700C0000008958EB58B608EBD65
S11301401DBC1CBC8FE493EC9BBD8ABD89B7806148
S113015089BF08951F920F920FB60F9211240F902A
S11301600FBE0F901F90189525B32F70382F307F36
S1130170232B25BB25B361702E7F262B25BBA99A83
S1130180EFEDFEE23197F1F700C0000025B32C7FBC
S113019025BB25B32F7082959295907F9827807FF9
S11301A09827822B85BB85B38E7F682B65BBA99A64
S11301B08FED9EE20197F1F700C0000085B38C7FBC
S11301C085BB08958FEF84BB60E070E083E090E02E
S11301D00E94B4008FEF9CE70197F1F700C0000084
S11301E060E070E083E090E00E94B4008FEF9CE751
S11301F00197F1F700C0000060E070E083E090E058
S11302000E94B4008FEF9CE70197F1F700C0000053
S113021060E070E082E090E00E94B4008FEF9CE721
S11302200197F1F700C0000060E070E08CE090E01E
S11302300E94B4008FEF9CE70197F1F700C0000023
S113024060E070E081E090E00E94B4008FEF9CE7F2
S11302500197F1F700C0000060E070E080E890E0F2
S11302600E94B4008FEF9CE70197F1F700C00000F3
S113027060E070E081E090E00E94B4000895EF92A5
S1130280FF920F931F93CF93DF938C017C01C0E007
S1130290D0E009C0F70181917F0161E070E090E056
S11302A00E94B4002196F80101900020E9F73197EB
S11302B0E01BF10BCE17DF0768F3DF91CF911F919D
S11302C00F91FF90EF90089560E070E081E090E07E
S11302D00E94B40060E070E080E890E00E94B40006
S11302E080E790E00E943F0160E070E080EC90E0E5
S11302F00E94B4008FE790E00E943F0108950E949D
S1130300E2000E949D000E94490078942FEF80E74C
S113031092E0215080409040E1F700C000000E942C
S10F032064010E945000FDCFF894FFCF50
S113032C496E697469616C697A696E672E2E2E0048
S113033C4249504F4C415220445249564552002098
S111034C202053434F5250494F4E4950580001
S9030000FC
